{
  "_format": "hh-sol-artifact-1",
  "contractName": "LoanContract",
  "sourceName": "contracts/LoanContract.sol",
  "abi": [
    {
      "inputs": [
        {
          "internalType": "uint256",
          "name": "_interestRate",
          "type": "uint256"
        },
        {
          "internalType": "uint256",
          "name": "_loanDuration",
          "type": "uint256"
        },
        {
          "internalType": "uint256",
          "name": "_collateralRequirement",
          "type": "uint256"
        }
      ],
      "stateMutability": "nonpayable",
      "type": "constructor"
    },
    {
      "inputs": [
        {
          "internalType": "address",
          "name": "owner",
          "type": "address"
        }
      ],
      "name": "OwnableInvalidOwner",
      "type": "error"
    },
    {
      "inputs": [
        {
          "internalType": "address",
          "name": "account",
          "type": "address"
        }
      ],
      "name": "OwnableUnauthorizedAccount",
      "type": "error"
    },
    {
      "anonymous": false,
      "inputs": [
        {
          "indexed": true,
          "internalType": "uint256",
          "name": "loanId",
          "type": "uint256"
        },
        {
          "indexed": true,
          "internalType": "address",
          "name": "borrower",
          "type": "address"
        },
        {
          "indexed": false,
          "internalType": "uint256",
          "name": "amount",
          "type": "uint256"
        },
        {
          "indexed": false,
          "internalType": "uint256",
          "name": "collateralAmount",
          "type": "uint256"
        },
        {
          "indexed": false,
          "internalType": "uint256",
          "name": "dueDate",
          "type": "uint256"
        }
      ],
      "name": "LoanCreated",
      "type": "event"
    },
    {
      "anonymous": false,
      "inputs": [
        {
          "indexed": true,
          "internalType": "uint256",
          "name": "loanId",
          "type": "uint256"
        },
        {
          "indexed": true,
          "internalType": "address",
          "name": "borrower",
          "type": "address"
        }
      ],
      "name": "LoanRepaid",
      "type": "event"
    },
    {
      "anonymous": false,
      "inputs": [
        {
          "indexed": true,
          "internalType": "address",
          "name": "previousOwner",
          "type": "address"
        },
        {
          "indexed": true,
          "internalType": "address",
          "name": "newOwner",
          "type": "address"
        }
      ],
      "name": "OwnershipTransferred",
      "type": "event"
    },
    {
      "inputs": [],
      "name": "collateralRequirement",
      "outputs": [
        {
          "internalType": "uint256",
          "name": "",
          "type": "uint256"
        }
      ],
      "stateMutability": "view",
      "type": "function"
    },
    {
      "inputs": [
        {
          "internalType": "uint256",
          "name": "amount",
          "type": "uint256"
        }
      ],
      "name": "createLoan",
      "outputs": [],
      "stateMutability": "payable",
      "type": "function"
    },
    {
      "inputs": [],
      "name": "fetchAllLoans",
      "outputs": [
        {
          "components": [
            {
              "internalType": "uint256",
              "name": "id",
              "type": "uint256"
            },
            {
              "internalType": "address",
              "name": "borrower",
              "type": "address"
            },
            {
              "internalType": "uint256",
              "name": "amount",
              "type": "uint256"
            },
            {
              "internalType": "uint256",
              "name": "collateralAmount",
              "type": "uint256"
            },
            {
              "internalType": "uint256",
              "name": "dueDate",
              "type": "uint256"
            },
            {
              "internalType": "bool",
              "name": "isRepaid",
              "type": "bool"
            }
          ],
          "internalType": "struct LoanContract.Loan[]",
          "name": "",
          "type": "tuple[]"
        }
      ],
      "stateMutability": "view",
      "type": "function"
    },
    {
      "inputs": [
        {
          "internalType": "address",
          "name": "borrower",
          "type": "address"
        }
      ],
      "name": "getLoansByBorrower",
      "outputs": [
        {
          "internalType": "uint256[]",
          "name": "",
          "type": "uint256[]"
        }
      ],
      "stateMutability": "view",
      "type": "function"
    },
    {
      "inputs": [],
      "name": "interestRate",
      "outputs": [
        {
          "internalType": "uint256",
          "name": "",
          "type": "uint256"
        }
      ],
      "stateMutability": "view",
      "type": "function"
    },
    {
      "inputs": [],
      "name": "loanDuration",
      "outputs": [
        {
          "internalType": "uint256",
          "name": "",
          "type": "uint256"
        }
      ],
      "stateMutability": "view",
      "type": "function"
    },
    {
      "inputs": [
        {
          "internalType": "uint256",
          "name": "",
          "type": "uint256"
        }
      ],
      "name": "loans",
      "outputs": [
        {
          "internalType": "uint256",
          "name": "id",
          "type": "uint256"
        },
        {
          "internalType": "address",
          "name": "borrower",
          "type": "address"
        },
        {
          "internalType": "uint256",
          "name": "amount",
          "type": "uint256"
        },
        {
          "internalType": "uint256",
          "name": "collateralAmount",
          "type": "uint256"
        },
        {
          "internalType": "uint256",
          "name": "dueDate",
          "type": "uint256"
        },
        {
          "internalType": "bool",
          "name": "isRepaid",
          "type": "bool"
        }
      ],
      "stateMutability": "view",
      "type": "function"
    },
    {
      "inputs": [
        {
          "internalType": "address",
          "name": "",
          "type": "address"
        },
        {
          "internalType": "uint256",
          "name": "",
          "type": "uint256"
        }
      ],
      "name": "loansByBorrower",
      "outputs": [
        {
          "internalType": "uint256",
          "name": "",
          "type": "uint256"
        }
      ],
      "stateMutability": "view",
      "type": "function"
    },
    {
      "inputs": [],
      "name": "nextLoanId",
      "outputs": [
        {
          "internalType": "uint256",
          "name": "",
          "type": "uint256"
        }
      ],
      "stateMutability": "view",
      "type": "function"
    },
    {
      "inputs": [],
      "name": "owner",
      "outputs": [
        {
          "internalType": "address",
          "name": "",
          "type": "address"
        }
      ],
      "stateMutability": "view",
      "type": "function"
    },
    {
      "inputs": [],
      "name": "renounceOwnership",
      "outputs": [],
      "stateMutability": "nonpayable",
      "type": "function"
    },
    {
      "inputs": [
        {
          "internalType": "uint256",
          "name": "loanId",
          "type": "uint256"
        }
      ],
      "name": "repayLoan",
      "outputs": [],
      "stateMutability": "payable",
      "type": "function"
    },
    {
      "inputs": [
        {
          "internalType": "address",
          "name": "newOwner",
          "type": "address"
        }
      ],
      "name": "transferOwnership",
      "outputs": [],
      "stateMutability": "nonpayable",
      "type": "function"
    }
  ],
  "bytecode": "0x608060405234801561001057600080fd5b50604051610d60380380610d6083398101604081905261002f916100c4565b338061005557604051631e4fbdf760e01b81526000600482015260240160405180910390fd5b61005e81610074565b50600292909255600355600455600180556100f2565b600080546001600160a01b038381166001600160a01b0319831681178455604051919092169283917f8be0079c531659141344cd1fd0a4f28419497f9722a3daafe3b4186f6b6457e09190a35050565b6000806000606084860312156100d957600080fd5b8351925060208401519150604084015190509250925092565b610c5f806101016000396000f3fe6080604052600436106100c25760003560e01c806387c514591161007f578063ab7b1c8911610059578063ab7b1c89146101e1578063e1ec3c68146101f4578063f2fde38b14610288578063f5521bf1146102a857600080fd5b806387c51459146101905780638da5cb5b146101a65780639a4e8ecf146101ce57600080fd5b80630c907e10146100c757806348e30c3f146100f25780634b7f1e5a14610116578063715018a6146101365780637c3a00fd1461014d57806386a2a43814610163575b600080fd5b3480156100d357600080fd5b506100dc6102be565b6040516100e99190610a27565b60405180910390f35b3480156100fe57600080fd5b5061010860045481565b6040519081526020016100e9565b34801561012257600080fd5b50610108610131366004610ac6565b610413565b34801561014257600080fd5b5061014b610444565b005b34801561015957600080fd5b5061010860025481565b34801561016f57600080fd5b5061018361017e366004610af0565b610458565b6040516100e99190610b12565b34801561019c57600080fd5b5061010860015481565b3480156101b257600080fd5b506000546040516001600160a01b0390911681526020016100e9565b61014b6101dc366004610b56565b6104c4565b61014b6101ef366004610b56565b610661565b34801561020057600080fd5b5061025161020f366004610b56565b600560208190526000918252604090912080546001820154600283015460038401546004850154949095015492946001600160a01b0390921693909260ff1686565b604080519687526001600160a01b0390951660208701529385019290925260608401526080830152151560a082015260c0016100e9565b34801561029457600080fd5b5061014b6102a3366004610af0565b61081d565b3480156102b457600080fd5b5061010860035481565b60606000600180546102d09190610b85565b67ffffffffffffffff8111156102e8576102e8610b98565b60405190808252806020026020018201604052801561035d57816020015b61034a6040518060c001604052806000815260200160006001600160a01b031681526020016000815260200160008152602001600081526020016000151581525090565b8152602001906001900390816103065790505b50905060015b60015481101561040d57600081815260056020818152604092839020835160c081018552815481526001808301546001600160a01b03169382019390935260028201549481019490945260038101546060850152600481015460808501529182015460ff16151560a084015290919084906103de9085610b85565b815181106103ee576103ee610bae565b602002602001018190525050808061040590610bc4565b915050610363565b50919050565b6006602052816000526040600020818154811061042f57600080fd5b90600052602060002001600091509150505481565b61044c61085b565b6104566000610888565b565b6001600160a01b0381166000908152600660209081526040918290208054835181840281018401909452808452606093928301828280156104b857602002820191906000526020600020905b8154815260200190600101908083116104a4575b50505050509050919050565b60006104e660646104e0600454856108d890919063ffffffff16565b90610963565b905080341461053c5760405162461bcd60e51b815260206004820152601b60248201527f496e636f727265637420636f6c6c61746572616c20616d6f756e74000000000060448201526064015b60405180910390fd5b6000610553600354426109c890919063ffffffff16565b6040805160c081018252600180548083523360208085018281528587018b815260608088018c8152608089018b8152600060a08b0181815298815260058088528c82209b518c5595518b8b0180546001600160a01b0319166001600160a01b03909216919091179055935160028b0155905160038a0155516004890155945196909101805460ff1916961515969096179095558185526006815285852084548154808701835591875295829020019490945591548451898152938401889052938301859052939450927fb2cca1719ad611d325136b9c9a4357f412d33694d93c60d4c1b6e922d524cf59910160405180910390a36001805490600061065783610bc4565b9190505550505050565b600081815260056020526040902060018101546001600160a01b031633146106d75760405162461bcd60e51b8152602060048201526024808201527f4f6e6c792074686520626f72726f7765722063616e20726570617920746865206044820152633637b0b760e11b6064820152608401610533565b600581015460ff16156107255760405162461bcd60e51b8152602060048201526016602482015275131bd85b881a5cc8185b1c9958591e481c995c185a5960521b6044820152606401610533565b8060020154341461078c5760405162461bcd60e51b815260206004820152602b60248201527f52657061796d656e7420616d6f756e74206d757374206d61746368207468652060448201526a1b1bd85b88185b5bdd5b9d60aa1b6064820152608401610533565b60058101805460ff1916600190811790915581015460038201546040516001600160a01b039092169181156108fc0291906000818181858888f193505050501580156107dc573d6000803e3d6000fd5b5060018101546040516001600160a01b039091169083907fe69d7686a8bc68278b8c5419579f91716b3ef2ac2fac0d8cf80b8011f8f458a490600090a35050565b61082561085b565b6001600160a01b03811661084f57604051631e4fbdf760e01b815260006004820152602401610533565b61085881610888565b50565b6000546001600160a01b031633146104565760405163118cdaa760e01b8152336004820152602401610533565b600080546001600160a01b038381166001600160a01b0319831681178455604051919092169283917f8be0079c531659141344cd1fd0a4f28419497f9722a3daafe3b4186f6b6457e09190a35050565b6000826000036108ea5750600061095d565b60006108f68385610bdd565b9050826109038583610bf4565b1461095a5760405162461bcd60e51b815260206004820152602160248201527f536166654d6174683a206d756c7469706c69636174696f6e206f766572666c6f6044820152607760f81b6064820152608401610533565b90505b92915050565b60008082116109b45760405162461bcd60e51b815260206004820152601a60248201527f536166654d6174683a206469766973696f6e206279207a65726f0000000000006044820152606401610533565b60006109c08385610bf4565b949350505050565b6000806109d58385610c16565b90508381101561095a5760405162461bcd60e51b815260206004820152601b60248201527f536166654d6174683a206164646974696f6e206f766572666c6f7700000000006044820152606401610533565b602080825282518282018190526000919060409081850190868401855b82811015610a9d57815180518552868101516001600160a01b0316878601528581015186860152606080820151908601526080808201519086015260a09081015115159085015260c09093019290850190600101610a44565b5091979650505050505050565b80356001600160a01b0381168114610ac157600080fd5b919050565b60008060408385031215610ad957600080fd5b610ae283610aaa565b946020939093013593505050565b600060208284031215610b0257600080fd5b610b0b82610aaa565b9392505050565b6020808252825182820181905260009190848201906040850190845b81811015610b4a57835183529284019291840191600101610b2e565b50909695505050505050565b600060208284031215610b6857600080fd5b5035919050565b634e487b7160e01b600052601160045260246000fd5b8181038181111561095d5761095d610b6f565b634e487b7160e01b600052604160045260246000fd5b634e487b7160e01b600052603260045260246000fd5b600060018201610bd657610bd6610b6f565b5060010190565b808202811582820484141761095d5761095d610b6f565b600082610c1157634e487b7160e01b600052601260045260246000fd5b500490565b8082018082111561095d5761095d610b6f56fea2646970667358221220d26285949cd1109bfd3287fbc4e9ea6d4e554758cb8bd6affd6045ef75a3336564736f6c63430008140033",
  "linkReferences": {},
  "deployedLinkReferences": {}
}